{
  "contractName": "BettingGame",
  "abi": [
    {
      "constant": false,
      "inputs": [
        {
          "name": "addr",
          "type": "address"
        }
      ],
      "name": "removeAdmin",
      "outputs": [],
      "payable": false,
      "stateMutability": "nonpayable",
      "type": "function"
    },
    {
      "constant": true,
      "inputs": [
        {
          "name": "",
          "type": "address"
        }
      ],
      "name": "admins",
      "outputs": [
        {
          "name": "",
          "type": "bool"
        }
      ],
      "payable": false,
      "stateMutability": "view",
      "type": "function"
    },
    {
      "constant": true,
      "inputs": [
        {
          "name": "",
          "type": "uint256"
        }
      ],
      "name": "placedBets",
      "outputs": [
        {
          "name": "sender",
          "type": "address"
        },
        {
          "name": "stake",
          "type": "uint256"
        },
        {
          "name": "content",
          "type": "uint8"
        },
        {
          "name": "odd",
          "type": "uint256"
        },
        {
          "name": "id",
          "type": "uint256"
        },
        {
          "name": "matched",
          "type": "uint256"
        },
        {
          "name": "cancelled",
          "type": "bool"
        },
        {
          "name": "result",
          "type": "uint256"
        },
        {
          "name": "referrer",
          "type": "address"
        }
      ],
      "payable": false,
      "stateMutability": "view",
      "type": "function"
    },
    {
      "constant": false,
      "inputs": [
        {
          "name": "addr",
          "type": "address"
        }
      ],
      "name": "addAdmin",
      "outputs": [],
      "payable": false,
      "stateMutability": "nonpayable",
      "type": "function"
    },
    {
      "constant": true,
      "inputs": [
        {
          "name": "",
          "type": "address"
        },
        {
          "name": "",
          "type": "uint256"
        }
      ],
      "name": "userBets",
      "outputs": [
        {
          "name": "",
          "type": "uint256"
        }
      ],
      "payable": false,
      "stateMutability": "view",
      "type": "function"
    },
    {
      "constant": true,
      "inputs": [
        {
          "name": "",
          "type": "uint8"
        },
        {
          "name": "",
          "type": "uint256"
        }
      ],
      "name": "liquidities",
      "outputs": [
        {
          "name": "",
          "type": "uint256"
        }
      ],
      "payable": false,
      "stateMutability": "view",
      "type": "function"
    },
    {
      "constant": true,
      "inputs": [],
      "name": "owner",
      "outputs": [
        {
          "name": "",
          "type": "address"
        }
      ],
      "payable": false,
      "stateMutability": "view",
      "type": "function"
    },
    {
      "constant": false,
      "inputs": [
        {
          "name": "newOwner",
          "type": "address"
        }
      ],
      "name": "changeOwner",
      "outputs": [],
      "payable": false,
      "stateMutability": "nonpayable",
      "type": "function"
    },
    {
      "constant": false,
      "inputs": [],
      "name": "confirmOwner",
      "outputs": [],
      "payable": false,
      "stateMutability": "nonpayable",
      "type": "function"
    },
    {
      "constant": true,
      "inputs": [],
      "name": "game",
      "outputs": [
        {
          "name": "id",
          "type": "uint256"
        },
        {
          "name": "home",
          "type": "string"
        },
        {
          "name": "away",
          "type": "string"
        },
        {
          "name": "startTime",
          "type": "uint256"
        },
        {
          "name": "ended",
          "type": "bool"
        },
        {
          "name": "isFreezing",
          "type": "bool"
        },
        {
          "name": "result",
          "type": "uint8"
        },
        {
          "name": "details",
          "type": "string"
        }
      ],
      "payable": false,
      "stateMutability": "view",
      "type": "function"
    },
    {
      "constant": true,
      "inputs": [
        {
          "name": "",
          "type": "uint8"
        },
        {
          "name": "",
          "type": "uint256"
        }
      ],
      "name": "allOdds",
      "outputs": [
        {
          "name": "",
          "type": "uint256"
        }
      ],
      "payable": false,
      "stateMutability": "view",
      "type": "function"
    },
    {
      "constant": true,
      "inputs": [
        {
          "name": "",
          "type": "address"
        }
      ],
      "name": "pendingWithdrawals",
      "outputs": [
        {
          "name": "",
          "type": "uint256"
        }
      ],
      "payable": false,
      "stateMutability": "view",
      "type": "function"
    },
    {
      "inputs": [],
      "payable": false,
      "stateMutability": "nonpayable",
      "type": "constructor"
    },
    {
      "anonymous": false,
      "inputs": [
        {
          "indexed": false,
          "name": "details",
          "type": "string"
        }
      ],
      "name": "GameEndEvent",
      "type": "event"
    },
    {
      "anonymous": false,
      "inputs": [
        {
          "indexed": false,
          "name": "user",
          "type": "address"
        }
      ],
      "name": "BetPlaceEvent",
      "type": "event"
    },
    {
      "anonymous": false,
      "inputs": [
        {
          "indexed": false,
          "name": "id",
          "type": "uint256"
        }
      ],
      "name": "BetMatchEvent",
      "type": "event"
    },
    {
      "anonymous": false,
      "inputs": [
        {
          "indexed": false,
          "name": "id",
          "type": "uint256"
        }
      ],
      "name": "BetCancelEvent",
      "type": "event"
    },
    {
      "anonymous": false,
      "inputs": [
        {
          "indexed": false,
          "name": "betContent",
          "type": "uint8"
        },
        {
          "indexed": false,
          "name": "odd",
          "type": "uint256"
        },
        {
          "indexed": false,
          "name": "liquidity",
          "type": "uint256"
        }
      ],
      "name": "LiquidityChangeEvent",
      "type": "event"
    },
    {
      "constant": false,
      "inputs": [
        {
          "name": "_id",
          "type": "uint256"
        },
        {
          "name": "_home",
          "type": "string"
        },
        {
          "name": "_away",
          "type": "string"
        },
        {
          "name": "_startTime",
          "type": "uint256"
        }
      ],
      "name": "createGame",
      "outputs": [],
      "payable": false,
      "stateMutability": "nonpayable",
      "type": "function"
    },
    {
      "constant": true,
      "inputs": [],
      "name": "currentTime",
      "outputs": [
        {
          "name": "",
          "type": "uint32"
        }
      ],
      "payable": false,
      "stateMutability": "view",
      "type": "function"
    },
    {
      "constant": false,
      "inputs": [
        {
          "name": "_content",
          "type": "uint8"
        },
        {
          "name": "_odd",
          "type": "uint256"
        },
        {
          "name": "_referrer",
          "type": "address"
        }
      ],
      "name": "placeBet",
      "outputs": [],
      "payable": true,
      "stateMutability": "payable",
      "type": "function"
    },
    {
      "constant": false,
      "inputs": [
        {
          "name": "_betID",
          "type": "uint256"
        }
      ],
      "name": "cancelBet",
      "outputs": [],
      "payable": false,
      "stateMutability": "nonpayable",
      "type": "function"
    },
    {
      "constant": false,
      "inputs": [
        {
          "name": "_content",
          "type": "uint8"
        },
        {
          "name": "_details",
          "type": "string"
        }
      ],
      "name": "setResultByHand",
      "outputs": [],
      "payable": false,
      "stateMutability": "nonpayable",
      "type": "function"
    },
    {
      "constant": false,
      "inputs": [],
      "name": "calculateWinners",
      "outputs": [],
      "payable": false,
      "stateMutability": "nonpayable",
      "type": "function"
    },
    {
      "constant": false,
      "inputs": [],
      "name": "withdraw",
      "outputs": [],
      "payable": false,
      "stateMutability": "nonpayable",
      "type": "function"
    },
    {
      "constant": false,
      "inputs": [
        {
          "name": "_freeze",
          "type": "bool"
        }
      ],
      "name": "freezeGame",
      "outputs": [],
      "payable": false,
      "stateMutability": "nonpayable",
      "type": "function"
    },
    {
      "constant": true,
      "inputs": [
        {
          "name": "_user",
          "type": "address"
        }
      ],
      "name": "getNumUserBets",
      "outputs": [
        {
          "name": "",
          "type": "uint256"
        }
      ],
      "payable": false,
      "stateMutability": "view",
      "type": "function"
    },
    {
      "constant": true,
      "inputs": [
        {
          "name": "_user",
          "type": "address"
        },
        {
          "name": "_index",
          "type": "uint256"
        }
      ],
      "name": "getUserBetID",
      "outputs": [
        {
          "name": "",
          "type": "uint256"
        }
      ],
      "payable": false,
      "stateMutability": "view",
      "type": "function"
    },
    {
      "constant": true,
      "inputs": [
        {
          "name": "_content",
          "type": "uint8"
        }
      ],
      "name": "getNumOdds",
      "outputs": [
        {
          "name": "",
          "type": "uint256"
        }
      ],
      "payable": false,
      "stateMutability": "view",
      "type": "function"
    },
    {
      "constant": true,
      "inputs": [
        {
          "name": "_content",
          "type": "uint8"
        },
        {
          "name": "_odd",
          "type": "uint256"
        }
      ],
      "name": "getLiquidity",
      "outputs": [
        {
          "name": "",
          "type": "uint256"
        }
      ],
      "payable": false,
      "stateMutability": "view",
      "type": "function"
    }
  ],
  "bytecode": "0x608060405234801561001057600080fd5b5033600160006101000a81548173ffffffffffffffffffffffffffffffffffffffff021916908373ffffffffffffffffffffffffffffffffffffffff16021790555033600160006101000a81548173ffffffffffffffffffffffffffffffffffffffff021916908373ffffffffffffffffffffffffffffffffffffffff160217905550614245806100a26000396000f30060806040526004361061013e576000357c0100000000000000000000000000000000000000000000000000000000900463ffffffff168063011bc2e1146101435780631307ce0c1461015a5780631785f53c146101a75780632c66404d146101ea578063357401f5146102ad5780633ccfd60b146102da57806340f2e201146102f1578063429b62e51461033f57806360e2f2a71461039a578063615ea1e4146103fb5780636b8d1f031461042a578063704802751461050d5780638068aa6814610550578063868c2129146105b15780638ca1affd146105f55780638da5cb5b14610643578063a6f9dae11461069a578063bd9b6d86146106dd578063c3fe3e28146106f4578063d139e47314610895578063d18e81b3146108e3578063f3f437031461091a578063f9a26fac14610971578063fd81fa9a146109c8575b600080fd5b34801561014f57600080fd5b50610158610a3e565b005b6101a5600480360381019080803560ff16906020019092919080359060200190929190803573ffffffffffffffffffffffffffffffffffffffff1690602001909291905050506114bf565b005b3480156101b357600080fd5b506101e8600480360381019080803573ffffffffffffffffffffffffffffffffffffffff16906020019092919050505061222d565b005b3480156101f657600080fd5b506102ab60048036038101908080359060200190929190803590602001908201803590602001908080601f0160208091040260200160405190810160405280939291908181526020018383808284378201915050505050509192919290803590602001908201803590602001908080601f0160208091040260200160405190810160405280939291908181526020018383808284378201915050505050509192919290803590602001909291905050506122e4565b005b3480156102b957600080fd5b506102d8600480360381019080803590602001909291905050506124cf565b005b3480156102e657600080fd5b506102ef612e4d565b005b3480156102fd57600080fd5b50610329600480360381019080803560ff16906020019092919080359060200190929190505050612fde565b6040518082815260200191505060405180910390f35b34801561034b57600080fd5b50610380600480360381019080803573ffffffffffffffffffffffffffffffffffffffff16906020019092919050505061301e565b604051808215151515815260200191505060405180910390f35b3480156103a657600080fd5b506103e5600480360381019080803573ffffffffffffffffffffffffffffffffffffffff1690602001909291908035906020019092919050505061303e565b6040518082815260200191505060405180910390f35b34801561040757600080fd5b506104286004803603810190808035151590602001909291905050506131a5565b005b34801561043657600080fd5b5061045560048036038101908080359060200190929190505050613275565b604051808a73ffffffffffffffffffffffffffffffffffffffff1673ffffffffffffffffffffffffffffffffffffffff16815260200189815260200188600581111561049d57fe5b60ff168152602001878152602001868152602001858152602001841515151581526020018381526020018273ffffffffffffffffffffffffffffffffffffffff1673ffffffffffffffffffffffffffffffffffffffff168152602001995050505050505050505060405180910390f35b34801561051957600080fd5b5061054e600480360381019080803573ffffffffffffffffffffffffffffffffffffffff16906020019092919050505061332c565b005b34801561055c57600080fd5b5061059b600480360381019080803573ffffffffffffffffffffffffffffffffffffffff169060200190929190803590602001909291905050506133e3565b6040518082815260200191505060405180910390f35b3480156105bd57600080fd5b506105df600480360381019080803560ff169060200190929190505050613413565b6040518082815260200191505060405180910390f35b34801561060157600080fd5b5061062d600480360381019080803560ff16906020019092919080359060200190929190505050613444565b6040518082815260200191505060405180910390f35b34801561064f57600080fd5b50610658613469565b604051808273ffffffffffffffffffffffffffffffffffffffff1673ffffffffffffffffffffffffffffffffffffffff16815260200191505060405180910390f35b3480156106a657600080fd5b506106db600480360381019080803573ffffffffffffffffffffffffffffffffffffffff16906020019092919050505061348f565b005b3480156106e957600080fd5b506106f261352e565b005b34801561070057600080fd5b506107096135ed565b604051808981526020018060200180602001888152602001871515151581526020018615151515815260200185600381111561074157fe5b60ff1681526020018060200184810384528b818151815260200191508051906020019080838360005b8381101561078557808201518184015260208101905061076a565b50505050905090810190601f1680156107b25780820380516001836020036101000a031916815260200191505b5084810383528a818151815260200191508051906020019080838360005b838110156107eb5780820151818401526020810190506107d0565b50505050905090810190601f1680156108185780820380516001836020036101000a031916815260200191505b50848103825285818151815260200191508051906020019080838360005b83811015610851578082015181840152602081019050610836565b50505050905090810190601f16801561087e5780820380516001836020036101000a031916815260200191505b509b50505050505050505050505060405180910390f35b3480156108a157600080fd5b506108cd600480360381019080803560ff16906020019092919080359060200190929190505050613812565b6040518082815260200191505060405180910390f35b3480156108ef57600080fd5b506108f8613842565b604051808263ffffffff1663ffffffff16815260200191505060405180910390f35b34801561092657600080fd5b5061095b600480360381019080803573ffffffffffffffffffffffffffffffffffffffff16906020019092919050505061384a565b6040518082815260200191505060405180910390f35b34801561097d57600080fd5b506109b2600480360381019080803573ffffffffffffffffffffffffffffffffffffffff169060200190929190505050613862565b6040518082815260200191505060405180910390f35b3480156109d457600080fd5b50610a3c600480360381019080803560ff169060200190929190803590602001908201803590602001908080601f01602080910402602001604051908101604052809392919081815260200183838082843782019150505050505091929192905050506138ae565b005b6000806000806000806000806000600160009054906101000a900473ffffffffffffffffffffffffffffffffffffffff1673ffffffffffffffffffffffffffffffffffffffff163373ffffffffffffffffffffffffffffffffffffffff161480610af15750600260003373ffffffffffffffffffffffffffffffffffffffff1673ffffffffffffffffffffffffffffffffffffffff16815260200190815260200160002060009054906101000a900460ff165b1515610afc57600080fd5b600360040160009054906101000a900460ff161515610b83576040517f08c379a000000000000000000000000000000000000000000000000000000000815260040180806020018281038252601a8152602001807f5468652067616d65206973206e6f7420656e646564207965742100000000000081525060200191505060405180910390fd5b600098505b600a805490508910156113f757600a89815481101515610ba457fe5b906000526020600020906009020160060160009054906101000a900460ff1615610bcd576113ea565b6000600a8a815481101515610bde57fe5b90600052602060002090600902016005015411156112b057610c2c600a8a815481101515610c0857fe5b906000526020600020906009020160020160009054906101000a900460ff16613b3a565b1561111b57610ca9600a8a815481101515610c4357fe5b906000526020600020906009020160020160009054906101000a900460ff16600a8b815481101515610c7157fe5b906000526020600020906009020160030154600a8c815481101515610c9257fe5b906000526020600020906009020160050154613d98565b96506000600a8a815481101515610cbc57fe5b906000526020600020906009020160080160009054906101000a900473ffffffffffffffffffffffffffffffffffffffff1673ffffffffffffffffffffffffffffffffffffffff16141515610eac57600a955060059450610d406103e8610d3287896103e803038a613e7d90919063ffffffff16565b613eb590919063ffffffff16565b9350610d696103e8610d5b878a613e7d90919063ffffffff16565b613eb590919063ffffffff16565b9150610d9082610d82868a613ecb90919063ffffffff16565b613ecb90919063ffffffff16565b9250610e2482600f6000600a8d815481101515610da957fe5b906000526020600020906009020160080160009054906101000a900473ffffffffffffffffffffffffffffffffffffffff1673ffffffffffffffffffffffffffffffffffffffff1673ffffffffffffffffffffffffffffffffffffffff16815260200190815260200160002054613ee490919063ffffffff16565b600f6000600a8c815481101515610e3757fe5b906000526020600020906009020160080160009054906101000a900473ffffffffffffffffffffffffffffffffffffffff1673ffffffffffffffffffffffffffffffffffffffff1673ffffffffffffffffffffffffffffffffffffffff16815260200190815260200160002081905550610ef3565b60149550610edb6103e8610ecd886103e8038a613e7d90919063ffffffff16565b613eb590919063ffffffff16565b9350610ef08488613ecb90919063ffffffff16565b92505b610f2684600a8b815481101515610f0657fe5b906000526020600020906009020160010154613ee490919063ffffffff16565b9750610fba88600f6000600a8d815481101515610f3f57fe5b906000526020600020906009020160000160009054906101000a900473ffffffffffffffffffffffffffffffffffffffff1673ffffffffffffffffffffffffffffffffffffffff1673ffffffffffffffffffffffffffffffffffffffff16815260200190815260200160002054613ee490919063ffffffff16565b600f6000600a8c815481101515610fcd57fe5b906000526020600020906009020160000160009054906101000a900473ffffffffffffffffffffffffffffffffffffffff1673ffffffffffffffffffffffffffffffffffffffff1673ffffffffffffffffffffffffffffffffffffffff168152602001908152602001600020819055506110b183600f6000600160009054906101000a900473ffffffffffffffffffffffffffffffffffffffff1673ffffffffffffffffffffffffffffffffffffffff1673ffffffffffffffffffffffffffffffffffffffff16815260200190815260200160002054613ee490919063ffffffff16565b600f6000600160009054906101000a900473ffffffffffffffffffffffffffffffffffffffff1673ffffffffffffffffffffffffffffffffffffffff1673ffffffffffffffffffffffffffffffffffffffff16815260200190815260200160002081905550611286565b61116e600a8a81548110151561112d57fe5b906000526020600020906009020160050154600a8b81548110151561114e57fe5b906000526020600020906009020160010154613ecb90919063ffffffff16565b975061120288600f6000600a8d81548110151561118757fe5b906000526020600020906009020160000160009054906101000a900473ffffffffffffffffffffffffffffffffffffffff1673ffffffffffffffffffffffffffffffffffffffff1673ffffffffffffffffffffffffffffffffffffffff16815260200190815260200160002054613ee490919063ffffffff16565b600f6000600a8c81548110151561121557fe5b906000526020600020906009020160000160009054906101000a900473ffffffffffffffffffffffffffffffffffffffff1673ffffffffffffffffffffffffffffffffffffffff1673ffffffffffffffffffffffffffffffffffffffff168152602001908152602001600020819055505b87600a8a81548110151561129657fe5b9060005260206000209060090201600701819055506113e9565b600a898154811015156112bf57fe5b906000526020600020906009020160010154905061136581600f6000600a8d8154811015156112ea57fe5b906000526020600020906009020160000160009054906101000a900473ffffffffffffffffffffffffffffffffffffffff1673ffffffffffffffffffffffffffffffffffffffff1673ffffffffffffffffffffffffffffffffffffffff16815260200190815260200160002054613ee490919063ffffffff16565b600f6000600a8c81548110151561137857fe5b906000526020600020906009020160000160009054906101000a900473ffffffffffffffffffffffffffffffffffffffff1673ffffffffffffffffffffffffffffffffffffffff1673ffffffffffffffffffffffffffffffffffffffff168152602001908152602001600020819055505b5b8880600101995050610b88565b7fe4b07b579e242bfc3994c6368d0a220b3c7a6639f90fbebbd64a565294d5a19c600360050160405180806020018281038252838181546001816001161561010002031660029004815260200191508054600181600116156101000203166002900480156114a65780601f1061147b576101008083540402835291602001916114a6565b820191906000526020600020905b81548152906001019060200180831161148957829003601f168201915b50509250505060405180910390a1505050505050505050565b6000806000806000806000600360040160019054906101000a900460ff16151515611552576040517f08c379a000000000000000000000000000000000000000000000000000000000815260040180806020018281038252600f8152602001807f47616d652069732066726f7a656e21000000000000000000000000000000000081525060200191505060405180910390fd5b600380015461155f613842565b63ffffffff161015156115da576040517f08c379a000000000000000000000000000000000000000000000000000000000815260040180806020018281038252601d8152602001807f5468652067616d652068617320616c726561647920737461727465642100000081525060200191505060405180910390fd5b6064891180156115eb57506103e889105b1515611685576040517f08c379a000000000000000000000000000000000000000000000000000000000815260040180806020018281038252602d8152602001807f4f64642073686f756c642062652077697468696e207468652072616e6765206f81526020017f66205b3130312c203939395d210000000000000000000000000000000000000081525060400191505060405180910390fd5b66038d7ea4c6800034101580156116a9575060006103e8348115156116a657fe5b06145b1515611743576040517f08c379a00000000000000000000000000000000000000000000000000000000081526004018080602001828103825260298152602001807f4265742076616c75652073686f756c6420626520626967676572207468616e2081526020017f312066696e6e657921000000000000000000000000000000000000000000000081525060400191505060405180910390fd5b6000600581111561175057fe5b8a600581111561175c57fe5b10158015611780575060058081111561177157fe5b8a600581111561177d57fe5b11155b15156117f4576040517f08c379a00000000000000000000000000000000000000000000000000000000081526004018080602001828103825260188152602001807f496e76616c69642062657474696e6720636f6e74656e7421000000000000000081525060200191505060405180910390fd5b8773ffffffffffffffffffffffffffffffffffffffff163373ffffffffffffffffffffffffffffffffffffffff16141515156118be576040517f08c379a000000000000000000000000000000000000000000000000000000000815260040180806020018281038252602f8152602001807f5468652062657420706c6163657220616e642072656665727265722063616e6e81526020017f6f74206265207468652073616d6521000000000000000000000000000000000081525060400191505060405180910390fd5b6000600d60008c60058111156118d057fe5b60ff1660ff16815260200190815260200160002060008b8152602001908152602001600020541115611a13576000965061194834600d60008d600581111561191457fe5b60ff1660ff16815260200190815260200160002060008c815260200190815260200160002054613ee490919063ffffffff16565b600d60008c600581111561195857fe5b60ff1660ff16815260200190815260200160002060008b8152602001908152602001600020819055507f18e04089925792f6bf4ad7f6a7f4b43661a1bd579cf16c759fef445aea2c82308a60058111156119ae57fe5b8a600d60008e60058111156119bf57fe5b60ff1660ff16815260200190815260200160002060008d815260200190815260200160002054604051808460ff1660ff168152602001838152602001828152602001935050505060405180910390a1611e7d565b611a1e8a8a34613d98565b9550611a298a613f00565b6005811115611a3457fe5b945060009350600092505b600b60008660ff1660ff16815260200190815260200160002060008a81526020019081526020016000208054905083108015611a7b5750600086115b15611c9557600a600b60008760ff1660ff16815260200190815260200160002060008b815260200190815260200160002084815481101515611ab957fe5b9060005260206000200154815481101515611ad057fe5b906000526020600020906009020191508160060160009054906101000a900460ff1615611afc57611c88565b816001015482600501541015611c87578160010154611b28878460050154613ee490919063ffffffff16565b1015611bc557611b45868360050154613ee490919063ffffffff16565b8260050181905550611b8a86600d60008860ff1660ff16815260200190815260200160002060008c815260200190815260200160002054613ecb90919063ffffffff16565b600d60008760ff1660ff16815260200190815260200160002060008b8152602001908152602001600020819055506001935060009550611c86565b611be082600501548360010154613ecb90919063ffffffff16565b9050611bf9818360050154613ee490919063ffffffff16565b8260050181905550611c3e81600d60008860ff1660ff16815260200190815260200160002060008c815260200190815260200160002054613ecb90919063ffffffff16565b600d60008760ff1660ff16815260200190815260200160002060008b81526020019081526020016000208190555060019350611c838187613ecb90919063ffffffff16565b95505b5b5b8280600101935050611a3f565b8315611d13577f18e04089925792f6bf4ad7f6a7f4b43661a1bd579cf16c759fef445aea2c8230858a600d60008960ff1660ff16815260200190815260200160002060008d815260200190815260200160002054604051808460ff1660ff168152602001838152602001828152602001935050505060405180910390a15b6000861115611e7857611d518560ff166005811115611d2e57fe5b8a611d4c89611d3e8f8f34613d98565b613ecb90919063ffffffff16565b613d98565b9650611dad611d698834613ecb90919063ffffffff16565b600d60008d6005811115611d7957fe5b60ff1660ff16815260200190815260200160002060008c815260200190815260200160002054613ee490919063ffffffff16565b600d60008c6005811115611dbd57fe5b60ff1660ff16815260200190815260200160002060008b8152602001908152602001600020819055507f18e04089925792f6bf4ad7f6a7f4b43661a1bd579cf16c759fef445aea2c82308a6005811115611e1357fe5b8a600d60008e6005811115611e2457fe5b60ff1660ff16815260200190815260200160002060008d815260200190815260200160002054604051808460ff1660ff168152602001838152602001828152602001935050505060405180910390a1611e7c565b3496505b5b600a610120604051908101604052803373ffffffffffffffffffffffffffffffffffffffff1681526020013481526020018c6005811115611eba57fe5b81526020018b81526020016009548152602001898152602001600015158152602001600081526020018a73ffffffffffffffffffffffffffffffffffffffff168152509080600181540180825580915050906001820390600052602060002090600902016000909192909190915060008201518160000160006101000a81548173ffffffffffffffffffffffffffffffffffffffff021916908373ffffffffffffffffffffffffffffffffffffffff1602179055506020820151816001015560408201518160020160006101000a81548160ff02191690836005811115611f9d57fe5b0217905550606082015181600301556080820151816004015560a0820151816005015560c08201518160060160006101000a81548160ff02191690831515021790555060e082015181600701556101008201518160080160006101000a81548173ffffffffffffffffffffffffffffffffffffffff021916908373ffffffffffffffffffffffffffffffffffffffff160217905550505050600b60008b600581111561204557fe5b60ff1660ff16815260200190815260200160002060008a815260200190815260200160002060095490806001815401808255809150509060018203906000526020600020016000909192909190915055506120ab8a60058111156120a557fe5b8a61406e565b156120ff57600c60008b60058111156120c057fe5b60ff1660ff1681526020019081526020016000208990806001815401808255809150509060018203906000526020600020016000909192909190915055505b600e60003373ffffffffffffffffffffffffffffffffffffffff1673ffffffffffffffffffffffffffffffffffffffff16815260200190815260200160002060095490806001815401808255809150509060018203906000526020600020016000909192909190915055507f43fff19d876725e1722272dff830bcfbcd99fb7b1e5578326b8afe1d3543a1f933604051808273ffffffffffffffffffffffffffffffffffffffff1673ffffffffffffffffffffffffffffffffffffffff16815260200191505060405180910390a16000871115612210577f75b24bb39058ba49cfcbface0ec502172024842f70cc623f97c81bcc99118bb26009546040518082815260200191505060405180910390a15b600160096000828254019250508190555050505050505050505050565b600160009054906101000a900473ffffffffffffffffffffffffffffffffffffffff1673ffffffffffffffffffffffffffffffffffffffff163373ffffffffffffffffffffffffffffffffffffffff1614151561228957600080fd5b6000600260008373ffffffffffffffffffffffffffffffffffffffff1673ffffffffffffffffffffffffffffffffffffffff16815260200190815260200160002060006101000a81548160ff02191690831515021790555050565b600160009054906101000a900473ffffffffffffffffffffffffffffffffffffffff1673ffffffffffffffffffffffffffffffffffffffff163373ffffffffffffffffffffffffffffffffffffffff1614806123895750600260003373ffffffffffffffffffffffffffffffffffffffff1673ffffffffffffffffffffffffffffffffffffffff16815260200190815260200160002060009054906101000a900460ff165b151561239457600080fd5b610100604051908101604052808581526020018481526020018381526020018281526020016000151581526020016000151581526020016003808111156123d757fe5b8152602001602060405190810160405280600081525081525060036000820151816000015560208201518160010190805190602001906124189291906140f4565b5060408201518160020190805190602001906124359291906140f4565b506060820151816003015560808201518160040160006101000a81548160ff02191690831515021790555060a08201518160040160016101000a81548160ff02191690831515021790555060c08201518160040160026101000a81548160ff021916908360038111156124a457fe5b021790555060e08201518160050190805190602001906124c59291906140f4565b5090505050505050565b6000806000806000600360040160019054906101000a900460ff1615151561255f576040517f08c379a000000000000000000000000000000000000000000000000000000000815260040180806020018281038252600f8152602001807f47616d652069732066726f7a656e21000000000000000000000000000000000081525060200191505060405180910390fd5b600380015461256c613842565b63ffffffff161015156125e7576040517f08c379a000000000000000000000000000000000000000000000000000000000815260040180806020018281038252601d8152602001807f5468652067616d652068617320616c726561647920737461727465642100000081525060200191505060405180910390fd5b60095486101515612660576040517f08c379a000000000000000000000000000000000000000000000000000000000815260040180806020018281038252600f8152602001807f42657420494420696e76616c696421000000000000000000000000000000000081525060200191505060405180910390fd5b600a8681548110151561266f57fe5b906000526020600020906009020160000160009054906101000a900473ffffffffffffffffffffffffffffffffffffffff1673ffffffffffffffffffffffffffffffffffffffff163373ffffffffffffffffffffffffffffffffffffffff16141515612769576040517f08c379a00000000000000000000000000000000000000000000000000000000081526004018080602001828103825260288152602001807f596f752068617665206e6f20726967687420746f2063616c6c2074686973206681526020017f756e6374696f6e2100000000000000000000000000000000000000000000000081525060400191505060405180910390fd5b600a8681548110151561277857fe5b906000526020600020906009020160060160009054906101000a900460ff1615151561280c576040517f08c379a000000000000000000000000000000000000000000000000000000000815260040180806020018281038252601d8152602001807f5468652062657420697320616c72656164792063616e63656c6c65642100000081525060200191505060405180910390fd5b6000600a8781548110151561281d57fe5b9060005260206000209060090201600501541415156128a4576040517f08c379a000000000000000000000000000000000000000000000000000000000815260040180806020018281038252601b8152602001807f5468652062657420697320616c7265616479206d61746368656421000000000081525060200191505060405180910390fd5b600061295b600a888154811015156128b857fe5b906000526020600020906009020160010154600d6000600a8b8154811015156128dd57fe5b906000526020600020906009020160020160009054906101000a900460ff16600581111561290757fe5b60ff1660ff1681526020019081526020016000206000600a8b81548110151561292c57fe5b906000526020600020906009020160030154815260200190815260200160002054613ecb90919063ffffffff16565b101515156129d1576040517f08c379a00000000000000000000000000000000000000000000000000000000081526004018080602001828103825260138152602001807f536f6d657468696e672069732077726f6e67210000000000000000000000000081525060200191505060405180910390fd5b6001600a878154811015156129e257fe5b906000526020600020906009020160060160006101000a81548160ff021916908315150217905550600a86815481101515612a1957fe5b906000526020600020906009020160020160009054906101000a900460ff166005811115612a4357fe5b9450600a86815481101515612a5457fe5b9060005260206000209060090201600301549350612ac5600a87815481101515612a7a57fe5b906000526020600020906009020160010154600d60008860ff1660ff168152602001908152602001600020600087815260200190815260200160002054613ecb90919063ffffffff16565b600d60008760ff1660ff1681526020019081526020016000206000868152602001908152602001600020819055507f18e04089925792f6bf4ad7f6a7f4b43661a1bd579cf16c759fef445aea2c82308585600d60008960ff1660ff168152602001908152602001600020600088815260200190815260200160002054604051808460ff1660ff168152602001838152602001828152602001935050505060405180910390a160059250612bb96103e8612bab856103e803600a8a815481101515612b8b57fe5b906000526020600020906009020160010154613e7d90919063ffffffff16565b613eb590919063ffffffff16565b9150612bee82600a88815481101515612bce57fe5b906000526020600020906009020160010154613ecb90919063ffffffff16565b90506000821115612e0e576000600a87815481101515612c0a57fe5b906000526020600020906009020160010181905550612cb182600f6000600a8a815481101515612c3657fe5b906000526020600020906009020160000160009054906101000a900473ffffffffffffffffffffffffffffffffffffffff1673ffffffffffffffffffffffffffffffffffffffff1673ffffffffffffffffffffffffffffffffffffffff16815260200190815260200160002054613ee490919063ffffffff16565b600f6000600a89815481101515612cc457fe5b906000526020600020906009020160000160009054906101000a900473ffffffffffffffffffffffffffffffffffffffff1673ffffffffffffffffffffffffffffffffffffffff1673ffffffffffffffffffffffffffffffffffffffff16815260200190815260200160002081905550612da881600f6000600160009054906101000a900473ffffffffffffffffffffffffffffffffffffffff1673ffffffffffffffffffffffffffffffffffffffff1673ffffffffffffffffffffffffffffffffffffffff16815260200190815260200160002054613ee490919063ffffffff16565b600f6000600160009054906101000a900473ffffffffffffffffffffffffffffffffffffffff1673ffffffffffffffffffffffffffffffffffffffff1673ffffffffffffffffffffffffffffffffffffffff168152602001908152602001600020819055505b7fb71d0bf444f01052b11f981baf42488752c2388dd5c6e903027522f0b98c25b7866040518082815260200191505060405180910390a1505050505050565b6000600360040160019054906101000a900460ff16151515612ed7576040517f08c379a000000000000000000000000000000000000000000000000000000000815260040180806020018281038252600f8152602001807f47616d652069732066726f7a656e21000000000000000000000000000000000081525060200191505060405180910390fd5b600f60003373ffffffffffffffffffffffffffffffffffffffff1673ffffffffffffffffffffffffffffffffffffffff16815260200190815260200160002054905060008114151515612f2957600080fd5b803073ffffffffffffffffffffffffffffffffffffffff163110151515612f4f57600080fd5b6000600f60003373ffffffffffffffffffffffffffffffffffffffff1673ffffffffffffffffffffffffffffffffffffffff168152602001908152602001600020819055503373ffffffffffffffffffffffffffffffffffffffff166108fc829081150290604051600060405180830381858888f19350505050158015612fda573d6000803e3d6000fd5b5050565b6000600d6000846005811115612ff057fe5b60ff1660ff168152602001908152602001600020600083815260200190815260200160002054905092915050565b60026020528060005260406000206000915054906101000a900460ff1681565b600080600e60008573ffffffffffffffffffffffffffffffffffffffff1673ffffffffffffffffffffffffffffffffffffffff168152602001908152602001600020805490501180156130d2575081600e60008573ffffffffffffffffffffffffffffffffffffffff1673ffffffffffffffffffffffffffffffffffffffff16815260200190815260200160002080549050115b1515613146576040517f08c379a00000000000000000000000000000000000000000000000000000000081526004018080602001828103825260138152602001807f496e646578206f7574206f662072616e6765210000000000000000000000000081525060200191505060405180910390fd5b600e60008473ffffffffffffffffffffffffffffffffffffffff1673ffffffffffffffffffffffffffffffffffffffff1681526020019081526020016000208281548110151561319257fe5b9060005260206000200154905092915050565b600160009054906101000a900473ffffffffffffffffffffffffffffffffffffffff1673ffffffffffffffffffffffffffffffffffffffff163373ffffffffffffffffffffffffffffffffffffffff16148061324a5750600260003373ffffffffffffffffffffffffffffffffffffffff1673ffffffffffffffffffffffffffffffffffffffff16815260200190815260200160002060009054906101000a900460ff165b151561325557600080fd5b80600360040160016101000a81548160ff02191690831515021790555050565b600a8181548110151561328457fe5b90600052602060002090600902016000915090508060000160009054906101000a900473ffffffffffffffffffffffffffffffffffffffff16908060010154908060020160009054906101000a900460ff16908060030154908060040154908060050154908060060160009054906101000a900460ff16908060070154908060080160009054906101000a900473ffffffffffffffffffffffffffffffffffffffff16905089565b600160009054906101000a900473ffffffffffffffffffffffffffffffffffffffff1673ffffffffffffffffffffffffffffffffffffffff163373ffffffffffffffffffffffffffffffffffffffff1614151561338857600080fd5b6001600260008373ffffffffffffffffffffffffffffffffffffffff1673ffffffffffffffffffffffffffffffffffffffff16815260200190815260200160002060006101000a81548160ff02191690831515021790555050565b600e602052816000526040600020818154811015156133fe57fe5b90600052602060002001600091509150505481565b6000600c600083600581111561342557fe5b60ff1660ff168152602001908152602001600020805490509050919050565b600d602052816000526040600020602052806000526040600020600091509150505481565b600160009054906101000a900473ffffffffffffffffffffffffffffffffffffffff1681565b600160009054906101000a900473ffffffffffffffffffffffffffffffffffffffff1673ffffffffffffffffffffffffffffffffffffffff163373ffffffffffffffffffffffffffffffffffffffff161415156134eb57600080fd5b806000806101000a81548173ffffffffffffffffffffffffffffffffffffffff021916908373ffffffffffffffffffffffffffffffffffffffff16021790555050565b3373ffffffffffffffffffffffffffffffffffffffff166000809054906101000a900473ffffffffffffffffffffffffffffffffffffffff1673ffffffffffffffffffffffffffffffffffffffff1614151561358957600080fd5b6000809054906101000a900473ffffffffffffffffffffffffffffffffffffffff16600160006101000a81548173ffffffffffffffffffffffffffffffffffffffff021916908373ffffffffffffffffffffffffffffffffffffffff160217905550565b6003806000015490806001018054600181600116156101000203166002900480601f01602080910402602001604051908101604052809291908181526020018280546001816001161561010002031660029004801561368d5780601f106136625761010080835404028352916020019161368d565b820191906000526020600020905b81548152906001019060200180831161367057829003601f168201915b505050505090806002018054600181600116156101000203166002900480601f01602080910402602001604051908101604052809291908181526020018280546001816001161561010002031660029004801561372b5780601f106137005761010080835404028352916020019161372b565b820191906000526020600020905b81548152906001019060200180831161370e57829003601f168201915b5050505050908060030154908060040160009054906101000a900460ff16908060040160019054906101000a900460ff16908060040160029054906101000a900460ff1690806005018054600181600116156101000203166002900480601f0160208091040260200160405190810160405280929190818152602001828054600181600116156101000203166002900480156138085780601f106137dd57610100808354040283529160200191613808565b820191906000526020600020905b8154815290600101906020018083116137eb57829003601f168201915b5050505050905088565b600c6020528160005260406000208181548110151561382d57fe5b90600052602060002001600091509150505481565b600042905090565b600f6020528060005260406000206000915090505481565b6000600e60008373ffffffffffffffffffffffffffffffffffffffff1673ffffffffffffffffffffffffffffffffffffffff168152602001908152602001600020805490509050919050565b600160009054906101000a900473ffffffffffffffffffffffffffffffffffffffff1673ffffffffffffffffffffffffffffffffffffffff163373ffffffffffffffffffffffffffffffffffffffff1614806139535750600260003373ffffffffffffffffffffffffffffffffffffffff1673ffffffffffffffffffffffffffffffffffffffff16815260200190815260200160002060009054906101000a900460ff165b151561395e57600080fd5b600380015461396b613842565b63ffffffff161115156139e6576040517f08c379a000000000000000000000000000000000000000000000000000000000815260040180806020018281038252601c8152602001807f5468652067616d65206973206e6f74207374617274656420796574210000000081525060200191505060405180910390fd5b6001600360040160006101000a81548160ff02191690831515021790555060008260ff161415613a3c576000600360040160026101000a81548160ff02191690836003811115613a3257fe5b0217905550613b1c565b60018260ff161415613a74576001600360040160026101000a81548160ff02191690836003811115613a6a57fe5b0217905550613b1b565b60028260ff161415613aac576002600360040160026101000a81548160ff02191690836003811115613aa257fe5b0217905550613b1a565b6040517f08c379a000000000000000000000000000000000000000000000000000000000815260040180806020018281038252600f8152602001807f4e6f207375636820726573756c7421000000000000000000000000000000000081525060200191505060405180910390fd5b5b5b8060036005019080519060200190613b35929190614174565b505050565b6000806003811115613b4857fe5b600360040160029054906101000a900460ff166003811115613b6657fe5b1415613bde5760006005811115613b7957fe5b826005811115613b8557fe5b1480613ba7575060036005811115613b9957fe5b826005811115613ba557fe5b145b80613bc75750600580811115613bb957fe5b826005811115613bc557fe5b145b15613bd55760019050613d93565b60009050613d93565b60016003811115613beb57fe5b600360040160029054906101000a900460ff166003811115613c0957fe5b1415613c815760016005811115613c1c57fe5b826005811115613c2857fe5b1480613c4a575060026005811115613c3c57fe5b826005811115613c4857fe5b145b80613c6a5750600580811115613c5c57fe5b826005811115613c6857fe5b145b15613c785760019050613d93565b60009050613d93565b60026003811115613c8e57fe5b600360040160029054906101000a900460ff166003811115613cac57fe5b1415613d255760016005811115613cbf57fe5b826005811115613ccb57fe5b1480613ced575060036005811115613cdf57fe5b826005811115613ceb57fe5b145b80613d0e575060046005811115613d0057fe5b826005811115613d0c57fe5b145b15613d1c5760019050613d93565b60009050613d93565b6040517f08c379a00000000000000000000000000000000000000000000000000000000081526004018080602001828103825260148152602001807f496e76616c69642067616d6520726573756c742100000000000000000000000081525060200191505060405180910390fd5b919050565b6000806005811115613da657fe5b846005811115613db257fe5b1480613dd4575060026005811115613dc657fe5b846005811115613dd257fe5b145b80613df5575060046005811115613de757fe5b846005811115613df357fe5b145b15613e3a57613e336064613e25613e16606487613ecb90919063ffffffff16565b85613e7d90919063ffffffff16565b613eb590919063ffffffff16565b9050613e76565b613e73613e51606485613ecb90919063ffffffff16565b613e65606485613e7d90919063ffffffff16565b613eb590919063ffffffff16565b90505b9392505050565b600080831415613e905760009050613eaf565b8183029050818382811515613ea157fe5b04141515613eab57fe5b8090505b92915050565b60008183811515613ec257fe5b04905092915050565b6000828211151515613ed957fe5b818303905092915050565b60008183019050828110151515613ef757fe5b80905092915050565b60008060006005811115613f1057fe5b836005811115613f1c57fe5b1415613f2b5760019050614065565b60016005811115613f3857fe5b836005811115613f4457fe5b1415613f535760009050614064565b60026005811115613f6057fe5b836005811115613f6c57fe5b1415613f7b5760039050614063565b60036005811115613f8857fe5b836005811115613f9457fe5b1415613fa35760029050614062565b60046005811115613fb057fe5b836005811115613fbc57fe5b1415613fcb5760059050614061565b600580811115613fd757fe5b836005811115613fe357fe5b1415613ff25760049050614060565b6040517f08c379a00000000000000000000000000000000000000000000000000000000081526004018080602001828103825260118152602001807f496e76616c696420617267756d656e742100000000000000000000000000000081525060200191505060405180910390fd5b5b5b5b5b5b80915050919050565b600080600090505b600c60008560ff1660ff168152602001908152602001600020805490508110156140e85782600c60008660ff1660ff168152602001908152602001600020828154811015156140c157fe5b906000526020600020015414156140db57600091506140ed565b8080600101915050614076565b600191505b5092915050565b828054600181600116156101000203166002900490600052602060002090601f016020900481019282601f1061413557805160ff1916838001178555614163565b82800160010185558215614163579182015b82811115614162578251825591602001919060010190614147565b5b50905061417091906141f4565b5090565b828054600181600116156101000203166002900490600052602060002090601f016020900481019282601f106141b557805160ff19168380011785556141e3565b828001600101855582156141e3579182015b828111156141e25782518255916020019190600101906141c7565b5b5090506141f091906141f4565b5090565b61421691905b808211156142125760008160009055506001016141fa565b5090565b905600a165627a7a72305820b614aba2646e6467bc22c5e5e7698ead28cdd373d3f0d4185169c93f5d47dce60029",
  "source": "pragma solidity ^0.4.20;\n\nimport \"./SafeMath.sol\";\n\ncontract Owned {\n    address private candidate;\n    address public owner;\n\n    mapping(address => bool) public admins;\n    \n    function Owned() public \n    {\n        owner = msg.sender;\n    }\n\n    function changeOwner(address newOwner) public \n    {\n        require(msg.sender == owner);\n        candidate = newOwner;\n    }\n    \n    function confirmOwner() public \n    {\n        require(candidate == msg.sender); // run by name=candidate\n        owner = candidate;\n    }\n    \n    function addAdmin(address addr) external \n    {\n        require(msg.sender == owner);\n        admins[addr] = true;\n    }\n\n    function removeAdmin(address addr) external\n    {\n        require(msg.sender == owner);\n        admins[addr] = false;\n    }\n}\n\ncontract BettingGame is Owned {\n    using SafeMath for uint;\n    \n    enum Result { HOMEWIN, AWAYWIN, DRAW, UNKNOWN }\n    enum BetContent { HOMEWIN, HOMENOTWIN, AWAYWIN, AWAYNOTWIN, DRAW, NOTDRAW }\n    \n    struct Game {\n        uint id;\n        string home;\n        string away;\n        uint startTime;\n        bool ended;\n        bool isFreezing;\n        Result result;\n        string details;\n    }\n    \n    struct Bet {\n        address sender;\n        uint stake;\n        BetContent content;\n        uint odd;\n        uint id;\n        uint matched;\n        bool cancelled;\n        uint result;\n        address referrer;\n    }\n    \n    Game public game;\n    uint betID;\n    \n    Bet[] public placedBets;\n    mapping(uint8 => mapping(uint => uint[])) oddPools;\n    mapping(uint8 => uint[]) public allOdds;\n    mapping(uint8 => mapping(uint => uint)) public liquidities;\n    mapping(address => uint[]) public userBets;\n    mapping(address => uint) public pendingWithdrawals;\n    \n    event GameEndEvent(string details);\n    event BetPlaceEvent(address user);\n    event BetMatchEvent(uint id);\n    event BetCancelEvent(uint id);\n    event LiquidityChangeEvent(uint8 betContent, uint odd, uint liquidity);\n    \n    modifier onlyOwner {\n        require(msg.sender == owner);\n        _;\n    }\n    \n    modifier onlyAdmin {\n        require(msg.sender == owner || admins[msg.sender]);\n        _;\n    }\n    \n    // Constructor\n    function BettingGame() public {\n        owner = msg.sender;\n    }\n    \n    // Create a new game\n    function createGame(uint _id, string _home, string _away, uint _startTime) onlyAdmin public {\n        game = Game(_id, _home, _away, _startTime, false, false, Result.UNKNOWN, \"\");\n    }\n    \n    function currentTime() public view returns(uint32) {\n        return uint32(block.timestamp);\n    }\n    \n    function calculateWinValue(BetContent _content, uint _odd, uint _value) internal returns (uint) {\n        if (_content == BetContent.HOMEWIN || _content == BetContent.AWAYWIN || _content == BetContent.DRAW) {\n            // Backs\n            return _value.mul(_odd.sub(100)).div(100);\n            // return _value * (_odd-100) / 100;\n        }\n        else {\n            // Lays\n            return _value.mul(100).div(_odd.sub(100));\n            // return _value * 100 / (_odd-100);\n        }\n    }\n    \n    function isOddNew(uint8 _content, uint _odd) internal view returns(bool) {\n        for (uint i=0; i<allOdds[_content].length; i++) {\n            if (allOdds[_content][i] == _odd) { return false; }\n        }\n        return true;\n    }\n    \n    // Participants place the bets\n    function placeBet(BetContent _content, uint _odd, address _referrer) public payable {\n        require(!game.isFreezing, \"Game is frozen!\");\n        require(currentTime() < game.startTime, \"The game has already started!\");\n        require(_odd>100 && _odd < 1000, \"Odd should be within the range of [101, 999]!\");\n        require(msg.value >= 1 finney && msg.value % 1000 == 0, \"Bet value should be bigger than 1 finney!\");\n        require(_content >= BetContent.HOMEWIN && _content <= BetContent.NOTDRAW, \"Invalid betting content!\");\n        require(msg.sender != _referrer, \"The bet placer and referrer cannot be the same!\");\n        \n        // Check if it can be matched\n        uint matched;\n        if (liquidities[uint8(_content)][_odd] > 0) {\n            matched = 0;\n            liquidities[uint8(_content)][_odd] = liquidities[uint8(_content)][_odd].add(msg.value);\n            emit LiquidityChangeEvent(uint8(_content), _odd, liquidities[uint8(_content)][_odd]);\n        }\n        else {\n            // Update the bets in the opposite pool\n            uint counter = calculateWinValue(_content, _odd, msg.value);\n            uint8 opposite = uint8(getCounterBetContent(_content));\n            bool oppositeLiquidityChanged = false;\n            for (uint i=0; i < oddPools[opposite][_odd].length && counter > 0; i++) {\n                Bet storage iterBet = placedBets[oddPools[opposite][_odd][i]];\n                if (iterBet.cancelled) {\n                    // Skip this bet if it is cancelled\n                    continue;\n                }\n                if (iterBet.matched < iterBet.stake) {\n                    if (iterBet.matched.add(counter) < iterBet.stake) {\n                        // The iterBet bet is big enough\n                        iterBet.matched = iterBet.matched.add(counter);\n                        liquidities[opposite][_odd] = liquidities[opposite][_odd].sub(counter);\n                        oppositeLiquidityChanged = true;\n                        counter = 0;\n                    }\n                    else {\n                        // Able to fill the iterBet bet\n                        uint gap = iterBet.stake.sub(iterBet.matched);\n                        iterBet.matched = iterBet.matched.add(gap);\n                        liquidities[opposite][_odd] = liquidities[opposite][_odd].sub(gap);\n                        oppositeLiquidityChanged = true;\n                        counter = counter.sub(gap);\n                    }\n                }\n            }\n            if (oppositeLiquidityChanged) {\n                emit LiquidityChangeEvent(opposite, _odd, liquidities[opposite][_odd]);\n            }\n            // Update the current bet\n            if (counter > 0) {\n                // Map the leftover back\n                matched = calculateWinValue(BetContent(opposite), _odd, calculateWinValue(_content, _odd, msg.value).sub(counter));\n                liquidities[uint8(_content)][_odd] = liquidities[uint8(_content)][_odd].add( msg.value.sub(matched) );\n                emit LiquidityChangeEvent(uint8(_content), _odd, liquidities[uint8(_content)][_odd]);\n            }\n            else {\n                // Used up\n                matched = msg.value;\n            }\n        }\n        \n        // Bet memory b = Bet(msg.sender, msg.value, _content, _odd, betID, matched, false);\n        placedBets.push(Bet(msg.sender, msg.value, _content, _odd, betID, matched, false, 0, _referrer));\n        oddPools[uint8(_content)][_odd].push(betID);\n        if (isOddNew(uint8(_content), _odd)) {\n            allOdds[uint8(_content)].push(_odd);\n        }\n        userBets[msg.sender].push(betID);\n        \n        emit BetPlaceEvent(msg.sender);\n        if (matched > 0) {\n            emit BetMatchEvent(betID);\n        }\n        \n        betID += 1; // use the index as the ID\n    }\n    \n    // Participants can cancel his/her bets with the cost of certain cancel fee\n    function cancelBet(uint _betID) public {\n        require(!game.isFreezing, \"Game is frozen!\");\n        require(currentTime() < game.startTime, \"The game has already started!\");\n        require(_betID < betID, \"Bet ID invalid!\");\n        require(msg.sender == placedBets[_betID].sender, \"You have no right to call this function!\");\n        require(!placedBets[_betID].cancelled, \"The bet is already cancelled!\");\n        require(placedBets[_betID].matched==0, \"The bet is already matched!\");\n        require(liquidities[uint8(placedBets[_betID].content)][placedBets[_betID].odd].sub(placedBets[_betID].stake)>=0, \"Something is wrong!\");\n        \n        placedBets[_betID].cancelled = true;\n        uint8 content = uint8(placedBets[_betID].content);\n        uint odd = placedBets[_betID].odd;\n        liquidities[content][odd] = liquidities[content][odd].sub(placedBets[_betID].stake);\n        emit LiquidityChangeEvent(content, odd, liquidities[content][odd]);\n        uint cancelFeeRatio = 5; // 0.5%\n        uint amount = placedBets[_betID].stake.mul(1000-cancelFeeRatio).div(1000);\n        uint fee = placedBets[_betID].stake.sub(amount);\n        \n        if (amount > 0) {\n            placedBets[_betID].stake = 0;\n            pendingWithdrawals[placedBets[_betID].sender] = pendingWithdrawals[placedBets[_betID].sender].add(amount);\n            pendingWithdrawals[owner] = pendingWithdrawals[owner].add(fee);\n        }\n        \n        emit BetCancelEvent(_betID);\n    }\n    \n    function getCounterBetContent(BetContent _content) internal returns(BetContent) {\n        BetContent newContent;\n        \n        if (_content == BetContent.HOMEWIN) { newContent=BetContent.HOMENOTWIN; }\n        else if (_content == BetContent.HOMENOTWIN) { newContent=BetContent.HOMEWIN; }\n        else if (_content == BetContent.AWAYWIN) { newContent=BetContent.AWAYNOTWIN; }\n        else if (_content == BetContent.AWAYNOTWIN) { newContent=BetContent.AWAYWIN; }\n        else if (_content == BetContent.DRAW) { newContent=BetContent.NOTDRAW; }\n        else if (_content == BetContent.NOTDRAW) { newContent=BetContent.DRAW; }\n        else revert(\"Invalid argument!\");\n        \n        return newContent;\n    }\n\n    // Set the game result \n    function setResultByHand(uint8 _content, string _details) onlyAdmin public {\n        require(currentTime() > game.startTime, \"The game is not started yet!\");\n        \n        game.ended = true;\n        \n        // Caculate winners\n        if (_content == 0) { game.result = Result.HOMEWIN; }\n        else if (_content == 1) { game.result = Result.AWAYWIN; }\n        else if (_content == 2) { game.result = Result.DRAW; }\n        else revert(\"No such result!\");\n        \n        game.details = _details;\n    }\n    \n    function checkBetWinOrLose(BetContent _content) internal returns (bool) {\n        if (game.result == Result.HOMEWIN) {\n            if (_content == BetContent.HOMEWIN || _content == BetContent.AWAYNOTWIN || _content == BetContent.NOTDRAW) { return true; }\n            else { return false; }\n        }\n        else if (game.result == Result.AWAYWIN) {\n            if (_content == BetContent.HOMENOTWIN || _content == BetContent.AWAYWIN || _content == BetContent.NOTDRAW) { return true; }\n            else { return false; }\n        }\n        else if (game.result == Result.DRAW) {\n            if (_content == BetContent.HOMENOTWIN || _content == BetContent.AWAYNOTWIN || _content == BetContent.DRAW) { return true; }\n            else { return false; }\n        }\n        else revert(\"Invalid game result!\");\n    }\n    \n    function calculateWinners() onlyAdmin public {\n        require(game.ended, \"The game is not ended yet!\");\n        \n        for (uint i=0; i<placedBets.length; i++) {\n            if(placedBets[i].cancelled) {\n                continue;\n            }\n            if (placedBets[i].matched>0) {\n                uint result;\n                if (checkBetWinOrLose(placedBets[i].content)) {\n                    // win, return the stake + win\n                    uint totalWin = calculateWinValue(placedBets[i].content, placedBets[i].odd, placedBets[i].matched);\n                    uint feeRatio;\n                    uint referRatio;\n                    uint profit;\n                    uint fee;\n                    if (placedBets[i].referrer != 0x0) {\n                        // somebody referred\n                        feeRatio = 10; // 1%\n                        referRatio = 5; // 0.5%\n                        profit = totalWin.mul(1000-feeRatio-referRatio).div(1000);\n                        uint referProfit = totalWin.mul(referRatio).div(1000);\n                        fee = totalWin.sub(profit).sub(referProfit);\n                        pendingWithdrawals[placedBets[i].referrer] = pendingWithdrawals[placedBets[i].referrer].add(referProfit);\n                    }\n                    else {\n                        feeRatio = 20; // 2%\n                        profit = totalWin.mul(1000-feeRatio).div(1000);\n                        fee = totalWin.sub(profit);\n                    }\n                    \n                    // placedBets[i].result = placedBets[i].stake.add(profit);\n                    // pendingWithdrawals[placedBets[i].sender] = pendingWithdrawals[placedBets[i].sender].add(placedBets[i].result);\n                    result = placedBets[i].stake.add(profit);\n                    pendingWithdrawals[placedBets[i].sender] = pendingWithdrawals[placedBets[i].sender].add(result);\n                    pendingWithdrawals[owner] = pendingWithdrawals[owner].add(fee);\n                }\n                else {\n                    // lose, return only the unmatched\n                    // placedBets[i].result = placedBets[i].stake.sub(placedBets[i].matched);\n                    // pendingWithdrawals[placedBets[i].sender] = pendingWithdrawals[placedBets[i].sender].add(placedBets[i].result);\n                    result = placedBets[i].stake.sub(placedBets[i].matched);\n                    pendingWithdrawals[placedBets[i].sender] = pendingWithdrawals[placedBets[i].sender].add(result);\n                }\n                placedBets[i].result = result;\n            }\n            else {\n                uint amount = placedBets[i].stake;\n                pendingWithdrawals[placedBets[i].sender] = pendingWithdrawals[placedBets[i].sender].add(amount);\n            }\n        }\n        \n        emit GameEndEvent(game.details);\n    }\n    \n    function withdraw() public {\n        require(!game.isFreezing, \"Game is frozen!\");\n        uint amount = pendingWithdrawals[msg.sender];\n        require(amount != 0);\n        require(this.balance >= amount);\n        \n        pendingWithdrawals[msg.sender] = 0;\n        msg.sender.transfer(amount);\n    }\n    \n    // Setters\n    function freezeGame(bool _freeze) onlyAdmin public {\n        game.isFreezing = _freeze;\n    }\n    \n    // Getters\n    function getNumUserBets(address _user) public view returns(uint) {\n        return userBets[_user].length;\n    }\n    \n    function getUserBetID(address _user, uint _index) public view returns(uint) {\n        require(userBets[_user].length>0 && userBets[_user].length>_index, \"Index out of range!\");\n        \n        return userBets[_user][_index];\n    }\n    \n    function getNumOdds(BetContent _content) public view returns(uint) {\n        return allOdds[uint8(_content)].length;\n    }\n    \n    function getLiquidity(BetContent _content, uint _odd) public view returns(uint) {\n        return liquidities[uint8(_content)][_odd];\n    }\n}",
  "sourcePath": "/Users/xin/webdev/soccerbet/contracts/BettingGame.sol",
  "compiler": {
    "name": "solc",
    "version": "0.4.23+commit.124ca40d.Emscripten.clang"
  },
  "schemaVersion": "2.0.0",
  "updatedAt": "2018-06-18T20:18:11.513Z"
}