{
  "contractName": "Owned",
  "abi": [
    {
      "constant": true,
      "inputs": [
        {
          "name": "",
          "type": "address"
        }
      ],
      "name": "admins",
      "outputs": [
        {
          "name": "",
          "type": "bool"
        }
      ],
      "payable": false,
      "stateMutability": "view",
      "type": "function"
    },
    {
      "constant": true,
      "inputs": [],
      "name": "owner",
      "outputs": [
        {
          "name": "",
          "type": "address"
        }
      ],
      "payable": false,
      "stateMutability": "view",
      "type": "function"
    },
    {
      "inputs": [],
      "payable": false,
      "stateMutability": "nonpayable",
      "type": "constructor"
    },
    {
      "constant": false,
      "inputs": [
        {
          "name": "newOwner",
          "type": "address"
        }
      ],
      "name": "changeOwner",
      "outputs": [],
      "payable": false,
      "stateMutability": "nonpayable",
      "type": "function"
    },
    {
      "constant": false,
      "inputs": [],
      "name": "confirmOwner",
      "outputs": [],
      "payable": false,
      "stateMutability": "nonpayable",
      "type": "function"
    },
    {
      "constant": false,
      "inputs": [
        {
          "name": "addr",
          "type": "address"
        }
      ],
      "name": "addAdmin",
      "outputs": [],
      "payable": false,
      "stateMutability": "nonpayable",
      "type": "function"
    },
    {
      "constant": false,
      "inputs": [
        {
          "name": "addr",
          "type": "address"
        }
      ],
      "name": "removeAdmin",
      "outputs": [],
      "payable": false,
      "stateMutability": "nonpayable",
      "type": "function"
    }
  ],
  "bytecode": "0x608060405234801561001057600080fd5b5033600160006101000a81548173ffffffffffffffffffffffffffffffffffffffff021916908373ffffffffffffffffffffffffffffffffffffffff16021790555061054d806100616000396000f300608060405260043610610078576000357c0100000000000000000000000000000000000000000000000000000000900463ffffffff1680631785f53c1461007d578063429b62e5146100c0578063704802751461011b5780638da5cb5b1461015e578063a6f9dae1146101b5578063bd9b6d86146101f8575b600080fd5b34801561008957600080fd5b506100be600480360381019080803573ffffffffffffffffffffffffffffffffffffffff16906020019092919050505061020f565b005b3480156100cc57600080fd5b50610101600480360381019080803573ffffffffffffffffffffffffffffffffffffffff1690602001909291905050506102c6565b604051808215151515815260200191505060405180910390f35b34801561012757600080fd5b5061015c600480360381019080803573ffffffffffffffffffffffffffffffffffffffff1690602001909291905050506102e6565b005b34801561016a57600080fd5b5061017361039d565b604051808273ffffffffffffffffffffffffffffffffffffffff1673ffffffffffffffffffffffffffffffffffffffff16815260200191505060405180910390f35b3480156101c157600080fd5b506101f6600480360381019080803573ffffffffffffffffffffffffffffffffffffffff1690602001909291905050506103c3565b005b34801561020457600080fd5b5061020d610462565b005b600160009054906101000a900473ffffffffffffffffffffffffffffffffffffffff1673ffffffffffffffffffffffffffffffffffffffff163373ffffffffffffffffffffffffffffffffffffffff1614151561026b57600080fd5b6000600260008373ffffffffffffffffffffffffffffffffffffffff1673ffffffffffffffffffffffffffffffffffffffff16815260200190815260200160002060006101000a81548160ff02191690831515021790555050565b60026020528060005260406000206000915054906101000a900460ff1681565b600160009054906101000a900473ffffffffffffffffffffffffffffffffffffffff1673ffffffffffffffffffffffffffffffffffffffff163373ffffffffffffffffffffffffffffffffffffffff1614151561034257600080fd5b6001600260008373ffffffffffffffffffffffffffffffffffffffff1673ffffffffffffffffffffffffffffffffffffffff16815260200190815260200160002060006101000a81548160ff02191690831515021790555050565b600160009054906101000a900473ffffffffffffffffffffffffffffffffffffffff1681565b600160009054906101000a900473ffffffffffffffffffffffffffffffffffffffff1673ffffffffffffffffffffffffffffffffffffffff163373ffffffffffffffffffffffffffffffffffffffff1614151561041f57600080fd5b806000806101000a81548173ffffffffffffffffffffffffffffffffffffffff021916908373ffffffffffffffffffffffffffffffffffffffff16021790555050565b3373ffffffffffffffffffffffffffffffffffffffff166000809054906101000a900473ffffffffffffffffffffffffffffffffffffffff1673ffffffffffffffffffffffffffffffffffffffff161415156104bd57600080fd5b6000809054906101000a900473ffffffffffffffffffffffffffffffffffffffff16600160006101000a81548173ffffffffffffffffffffffffffffffffffffffff021916908373ffffffffffffffffffffffffffffffffffffffff1602179055505600a165627a7a723058200e0d2fd8205e32d33f1401e2e9c9f2cf2ff6cdc93ffe13486cbc62e1fb0b37cb0029",
  "source": "pragma solidity ^0.4.20;\n\nimport \"./SafeMath.sol\";\n\ncontract Owned {\n    address private candidate;\n    address public owner;\n\n    mapping(address => bool) public admins;\n    \n    function Owned() public \n    {\n        owner = msg.sender;\n    }\n\n    function changeOwner(address newOwner) public \n    {\n        require(msg.sender == owner);\n        candidate = newOwner;\n    }\n    \n    function confirmOwner() public \n    {\n        require(candidate == msg.sender); // run by name=candidate\n        owner = candidate;\n    }\n    \n    function addAdmin(address addr) external \n    {\n        require(msg.sender == owner);\n        admins[addr] = true;\n    }\n\n    function removeAdmin(address addr) external\n    {\n        require(msg.sender == owner);\n        admins[addr] = false;\n    }\n}\n\ncontract BettingGame is Owned {\n    using SafeMath for uint;\n    \n    enum Result { HOMEWIN, AWAYWIN, DRAW, UNKNOWN }\n    enum BetContent { HOMEWIN, HOMENOTWIN, AWAYWIN, AWAYNOTWIN, DRAW, NOTDRAW }\n    \n    struct Game {\n        uint id;\n        string home;\n        string away;\n        uint startTime;\n        bool ended;\n        bool isFreezing;\n        Result result;\n        string details;\n    }\n    \n    struct Bet {\n        address sender;\n        uint stake;\n        BetContent content;\n        uint odd;\n        uint id;\n        uint matched;\n        bool cancelled;\n        uint result;\n        address referrer;\n    }\n    \n    Game public game;\n    uint betID;\n    \n    Bet[] public placedBets;\n    mapping(uint8 => mapping(uint => uint[])) oddPools;\n    mapping(uint8 => uint[]) public allOdds;\n    mapping(uint8 => mapping(uint => uint)) public liquidities;\n    mapping(address => uint[]) public userBets;\n    mapping(address => uint) public pendingWithdrawals;\n    \n    event GameEndEvent(string details);\n    event BetPlaceEvent(address user);\n    event BetMatchEvent(uint id);\n    event BetCancelEvent(uint id);\n    event LiquidityChangeEvent(uint8 betContent, uint odd, uint liquidity);\n    \n    modifier onlyOwner {\n        require(msg.sender == owner);\n        _;\n    }\n    \n    modifier onlyAdmin {\n        require(msg.sender == owner || admins[msg.sender]);\n        _;\n    }\n    \n    // Constructor\n    function BettingGame() public {\n        owner = msg.sender;\n    }\n    \n    // Create a new game\n    function createGame(uint _id, string _home, string _away, uint _startTime) onlyAdmin public {\n        game = Game(_id, _home, _away, _startTime, false, false, Result.UNKNOWN, \"\");\n    }\n    \n    function currentTime() public view returns(uint32) {\n        return uint32(block.timestamp);\n    }\n    \n    function calculateWinValue(BetContent _content, uint _odd, uint _value) internal returns (uint) {\n        if (_content == BetContent.HOMEWIN || _content == BetContent.AWAYWIN || _content == BetContent.DRAW) {\n            // Backs\n            return _value.mul(_odd.sub(100)).div(100);\n            // return _value * (_odd-100) / 100;\n        }\n        else {\n            // Lays\n            return _value.mul(100).div(_odd.sub(100));\n            // return _value * 100 / (_odd-100);\n        }\n    }\n    \n    function isOddNew(uint8 _content, uint _odd) internal view returns(bool) {\n        for (uint i=0; i<allOdds[_content].length; i++) {\n            if (allOdds[_content][i] == _odd) { return false; }\n        }\n        return true;\n    }\n    \n    // Participants place the bets\n    function placeBet(BetContent _content, uint _odd, address _referrer) public payable {\n        require(!game.isFreezing, \"Game is frozen!\");\n        require(currentTime() < game.startTime, \"The game has already started!\");\n        require(_odd>100 && _odd < 1000, \"Odd should be within the range of [101, 999]!\");\n        require(msg.value >= 1 finney && msg.value % 1000 == 0, \"Bet value should be bigger than 1 finney!\");\n        require(_content >= BetContent.HOMEWIN && _content <= BetContent.NOTDRAW, \"Invalid betting content!\");\n        require(msg.sender != _referrer, \"The bet placer and referrer cannot be the same!\");\n        \n        // Check if it can be matched\n        uint matched;\n        if (liquidities[uint8(_content)][_odd] > 0) {\n            matched = 0;\n            liquidities[uint8(_content)][_odd] = liquidities[uint8(_content)][_odd].add(msg.value);\n            emit LiquidityChangeEvent(uint8(_content), _odd, liquidities[uint8(_content)][_odd]);\n        }\n        else {\n            // Update the bets in the opposite pool\n            uint counter = calculateWinValue(_content, _odd, msg.value);\n            uint8 opposite = uint8(getCounterBetContent(_content));\n            bool oppositeLiquidityChanged = false;\n            for (uint i=0; i < oddPools[opposite][_odd].length && counter > 0; i++) {\n                Bet storage iterBet = placedBets[oddPools[opposite][_odd][i]];\n                if (iterBet.cancelled) {\n                    // Skip this bet if it is cancelled\n                    continue;\n                }\n                if (iterBet.matched < iterBet.stake) {\n                    if (iterBet.matched.add(counter) < iterBet.stake) {\n                        // The iterBet bet is big enough\n                        iterBet.matched = iterBet.matched.add(counter);\n                        liquidities[opposite][_odd] = liquidities[opposite][_odd].sub(counter);\n                        oppositeLiquidityChanged = true;\n                        counter = 0;\n                    }\n                    else {\n                        // Able to fill the iterBet bet\n                        uint gap = iterBet.stake.sub(iterBet.matched);\n                        iterBet.matched = iterBet.matched.add(gap);\n                        liquidities[opposite][_odd] = liquidities[opposite][_odd].sub(gap);\n                        oppositeLiquidityChanged = true;\n                        counter = counter.sub(gap);\n                    }\n                }\n            }\n            if (oppositeLiquidityChanged) {\n                emit LiquidityChangeEvent(opposite, _odd, liquidities[opposite][_odd]);\n            }\n            // Update the current bet\n            if (counter > 0) {\n                // Map the leftover back\n                matched = calculateWinValue(BetContent(opposite), _odd, calculateWinValue(_content, _odd, msg.value).sub(counter));\n                liquidities[uint8(_content)][_odd] = liquidities[uint8(_content)][_odd].add( msg.value.sub(matched) );\n                emit LiquidityChangeEvent(uint8(_content), _odd, liquidities[uint8(_content)][_odd]);\n            }\n            else {\n                // Used up\n                matched = msg.value;\n            }\n        }\n        \n        // Bet memory b = Bet(msg.sender, msg.value, _content, _odd, betID, matched, false);\n        placedBets.push(Bet(msg.sender, msg.value, _content, _odd, betID, matched, false, 0, _referrer));\n        oddPools[uint8(_content)][_odd].push(betID);\n        if (isOddNew(uint8(_content), _odd)) {\n            allOdds[uint8(_content)].push(_odd);\n        }\n        userBets[msg.sender].push(betID);\n        \n        emit BetPlaceEvent(msg.sender);\n        if (matched > 0) {\n            emit BetMatchEvent(betID);\n        }\n        \n        betID += 1; // use the index as the ID\n    }\n    \n    // Participants can cancel his/her bets with the cost of certain cancel fee\n    function cancelBet(uint _betID) public {\n        require(!game.isFreezing, \"Game is frozen!\");\n        require(currentTime() < game.startTime, \"The game has already started!\");\n        require(_betID < betID, \"Bet ID invalid!\");\n        require(msg.sender == placedBets[_betID].sender, \"You have no right to call this function!\");\n        require(!placedBets[_betID].cancelled, \"The bet is already cancelled!\");\n        require(placedBets[_betID].matched==0, \"The bet is already matched!\");\n        require(liquidities[uint8(placedBets[_betID].content)][placedBets[_betID].odd].sub(placedBets[_betID].stake)>=0, \"Something is wrong!\");\n        \n        placedBets[_betID].cancelled = true;\n        uint8 content = uint8(placedBets[_betID].content);\n        uint odd = placedBets[_betID].odd;\n        liquidities[content][odd] = liquidities[content][odd].sub(placedBets[_betID].stake);\n        emit LiquidityChangeEvent(content, odd, liquidities[content][odd]);\n        uint cancelFeeRatio = 5; // 0.5%\n        uint amount = placedBets[_betID].stake.mul(1000-cancelFeeRatio).div(1000);\n        uint fee = placedBets[_betID].stake.sub(amount);\n        \n        if (amount > 0) {\n            placedBets[_betID].stake = 0;\n            pendingWithdrawals[placedBets[_betID].sender] = pendingWithdrawals[placedBets[_betID].sender].add(amount);\n            pendingWithdrawals[owner] = pendingWithdrawals[owner].add(fee);\n        }\n        \n        emit BetCancelEvent(_betID);\n    }\n    \n    function getCounterBetContent(BetContent _content) internal returns(BetContent) {\n        BetContent newContent;\n        \n        if (_content == BetContent.HOMEWIN) { newContent=BetContent.HOMENOTWIN; }\n        else if (_content == BetContent.HOMENOTWIN) { newContent=BetContent.HOMEWIN; }\n        else if (_content == BetContent.AWAYWIN) { newContent=BetContent.AWAYNOTWIN; }\n        else if (_content == BetContent.AWAYNOTWIN) { newContent=BetContent.AWAYWIN; }\n        else if (_content == BetContent.DRAW) { newContent=BetContent.NOTDRAW; }\n        else if (_content == BetContent.NOTDRAW) { newContent=BetContent.DRAW; }\n        else revert(\"Invalid argument!\");\n        \n        return newContent;\n    }\n\n    // Set the game result \n    function setResultByHand(uint8 _content, string _details) onlyAdmin public {\n        require(currentTime() > game.startTime, \"The game is not started yet!\");\n        \n        game.ended = true;\n        \n        // Caculate winners\n        if (_content == 0) { game.result = Result.HOMEWIN; }\n        else if (_content == 1) { game.result = Result.AWAYWIN; }\n        else if (_content == 2) { game.result = Result.DRAW; }\n        else revert(\"No such result!\");\n        \n        game.details = _details;\n    }\n    \n    function checkBetWinOrLose(BetContent _content) internal returns (bool) {\n        if (game.result == Result.HOMEWIN) {\n            if (_content == BetContent.HOMEWIN || _content == BetContent.AWAYNOTWIN || _content == BetContent.NOTDRAW) { return true; }\n            else { return false; }\n        }\n        else if (game.result == Result.AWAYWIN) {\n            if (_content == BetContent.HOMENOTWIN || _content == BetContent.AWAYWIN || _content == BetContent.NOTDRAW) { return true; }\n            else { return false; }\n        }\n        else if (game.result == Result.DRAW) {\n            if (_content == BetContent.HOMENOTWIN || _content == BetContent.AWAYNOTWIN || _content == BetContent.DRAW) { return true; }\n            else { return false; }\n        }\n        else revert(\"Invalid game result!\");\n    }\n    \n    function calculateWinners() onlyAdmin public {\n        require(game.ended, \"The game is not ended yet!\");\n        \n        for (uint i=0; i<placedBets.length; i++) {\n            if(placedBets[i].cancelled) {\n                continue;\n            }\n            if (placedBets[i].matched>0) {\n                uint result;\n                if (checkBetWinOrLose(placedBets[i].content)) {\n                    // win, return the stake + win\n                    uint totalWin = calculateWinValue(placedBets[i].content, placedBets[i].odd, placedBets[i].matched);\n                    uint feeRatio;\n                    uint referRatio;\n                    uint profit;\n                    uint fee;\n                    if (placedBets[i].referrer != 0x0) {\n                        // somebody referred\n                        feeRatio = 10; // 1%\n                        referRatio = 5; // 0.5%\n                        profit = totalWin.mul(1000-feeRatio-referRatio).div(1000);\n                        uint referProfit = totalWin.mul(referRatio).div(1000);\n                        fee = totalWin.sub(profit).sub(referProfit);\n                        pendingWithdrawals[placedBets[i].referrer] = pendingWithdrawals[placedBets[i].referrer].add(referProfit);\n                    }\n                    else {\n                        feeRatio = 20; // 2%\n                        profit = totalWin.mul(1000-feeRatio).div(1000);\n                        fee = totalWin.sub(profit);\n                    }\n                    \n                    // placedBets[i].result = placedBets[i].stake.add(profit);\n                    // pendingWithdrawals[placedBets[i].sender] = pendingWithdrawals[placedBets[i].sender].add(placedBets[i].result);\n                    result = placedBets[i].stake.add(profit);\n                    pendingWithdrawals[placedBets[i].sender] = pendingWithdrawals[placedBets[i].sender].add(result);\n                    pendingWithdrawals[owner] = pendingWithdrawals[owner].add(fee);\n                }\n                else {\n                    // lose, return only the unmatched\n                    // placedBets[i].result = placedBets[i].stake.sub(placedBets[i].matched);\n                    // pendingWithdrawals[placedBets[i].sender] = pendingWithdrawals[placedBets[i].sender].add(placedBets[i].result);\n                    result = placedBets[i].stake.sub(placedBets[i].matched);\n                    pendingWithdrawals[placedBets[i].sender] = pendingWithdrawals[placedBets[i].sender].add(result);\n                }\n                placedBets[i].result = result;\n            }\n            else {\n                uint amount = placedBets[i].stake;\n                pendingWithdrawals[placedBets[i].sender] = pendingWithdrawals[placedBets[i].sender].add(amount);\n            }\n        }\n        \n        emit GameEndEvent(game.details);\n    }\n    \n    function withdraw() public {\n        require(!game.isFreezing, \"Game is frozen!\");\n        uint amount = pendingWithdrawals[msg.sender];\n        require(amount != 0);\n        require(this.balance >= amount);\n        \n        pendingWithdrawals[msg.sender] = 0;\n        msg.sender.transfer(amount);\n    }\n    \n    // Setters\n    function freezeGame(bool _freeze) onlyAdmin public {\n        game.isFreezing = _freeze;\n    }\n    \n    // Getters\n    function getNumUserBets(address _user) public view returns(uint) {\n        return userBets[_user].length;\n    }\n    \n    function getUserBetID(address _user, uint _index) public view returns(uint) {\n        require(userBets[_user].length>0 && userBets[_user].length>_index, \"Index out of range!\");\n        \n        return userBets[_user][_index];\n    }\n    \n    function getNumOdds(BetContent _content) public view returns(uint) {\n        return allOdds[uint8(_content)].length;\n    }\n    \n    function getLiquidity(BetContent _content, uint _odd) public view returns(uint) {\n        return liquidities[uint8(_content)][_odd];\n    }\n}",
  "sourcePath": "/Users/xin/webdev/soccerbet/contracts/BettingGame.sol",
  "compiler": {
    "name": "solc",
    "version": "0.4.23+commit.124ca40d.Emscripten.clang"
  },
  "schemaVersion": "2.0.0",
  "updatedAt": "2018-06-18T20:18:11.525Z"
}